:100000000C9490000C94B8000C94B8000C94B800B8
:100010000C94B8000C94B8000C94B8000C94B80080
:100020000C94B8000C94B8000C94AF070C943B08E7
:100030000C94B8000C94B8000C94B8000C94B80060
:100040000C94B8000C94B8000C94B8000C94B80050
:100050000C94B8000C94B8000C94B8000C944307AE
:100060000C94B8000C94B8000C94B8000C94B80030
:100070000C94B8000C94B8000C94B8000C94B80020
:100080000C94B8000C94B8000C94B8000C94B80010
:100090000C94B8000C94B8000C94B8000C94B80000
:1000A0000C94B8000C94B8000C94B800080B000233
:1000B0000202010009040000010202000005240000
:1000C0001001052401010104240206052406000193
:1000D0000705810310004009040100020A00000026
:1000E00007050202400000070583024000000403E8
:1000F000090412010002EF02014041233780000190
:100100000102030141726475696E6F204C4C43001B
:1001100041726475696E6F204D6963726F000F09DB
:1001200011241FBECFEFDAE0DEBFCDBF11E0A0E0AB
:10013000B1E0E6E4F2E102C005900D92A435B1070A
:10014000D9F721E0A4E5B1E001C01D92A43CB207BB
:10015000E1F710E0C0E9D0E004C02197FE010E9461
:100160001609CF38D107C9F70E949E070C942109C0
:100170000C9400000895FC0182E0808384E0818378
:100180001382128208958091BC01811107C088EB0F
:1001900091E00E94BB0081E08093BC0188EB91E07C
:1001A00008950F931F93CF93DF938B01FC01C281BE
:1001B000D381209771F0E881F9810190F081E02DE1
:1001C000B801CE010995811105C00884D985C02DDB
:1001D000F0CF80E0DF91CF911F910F9108950F93A1
:1001E0001F93CF93DF938B01FC01C281D3812097B2
:1001F00071F0E881F9810680F781E02DB801CE0128
:100200000995080F111D0884D985C02DF0CFF8017C
:100210001082DF91CF911F910F9108950F931F933B
:10022000CF93DF938B01FC01C281D381209771F0C2
:10023000E881F9810480F581E02DB801CE010995AE
:10024000009731F40884D985C02DF0CF80E090E08C
:10025000DF91CF911F910F910895EF92FF920F932D
:100260001F93CF93DF937B01FC01C281D38100E018
:1002700010E0209781F0E881F9810280F381E02D80
:10028000B701CE01099599234CF0080F191F088476
:10029000D985C02DEECF802F912F02C08FEF9FEF19
:1002A000DF91CF911F910F91FF90EF900895789477
:1002B00084B5826084BD84B5816084BD85B582606B
:1002C00085BD85B5816085BDEEE6F0E08081816009
:1002D0008083E1E8F0E01082808182608083808109
:1002E00081608083E0E8F0E0808181608083E1E9E3
:1002F000F0E0808182608083808181608083E0E99A
:10030000F0E0808181608083E1ECF0E080818460B6
:100310008083808182608083808181608083E3EC40
:10032000F0E0808181608083E0ECF0E08081826099
:100330008083E2ECF0E0808181608083EAE7F0E096
:1003400080818460808380818260808380818160FD
:10035000808380818068808308953FB7F89480917E
:10036000B4019091B501A091B601B091B70126B545
:10037000A89B05C02F3F19F00196A11DB11D3FBFDD
:10038000BA2FA92F982F8827820F911DA11DB11D6B
:10039000BC01CD01660F771F881F991F660F771F5D
:1003A000881F991F08958F929F92AF92BF92CF920C
:1003B000DF92EF92FF926B017C010E94AD014B0135
:1003C0005C011DC021E0C21AD108E108F10888EEE5
:1003D000880E83E0981EA11CB11CC114D104E10455
:1003E000F10469F00E94AD01DC01CB018819990983
:1003F000AA09BB09883E9340A105B10518F7C114AD
:10040000D104E104F10449F7FF90EF90DF90CF9021
:10041000BF90AF909F908F90089508951092AD0176
:100420001092AC011092AB01E7EDF0E080818160A9
:10043000808380EA8093D80089B5806189BD89B5C1
:10044000826089BD09B400FEFDCF61E070E080E00C
:1004500090E00E94D301E8EDF0E080818F7C806124
:100460008083E0EEF0E08081807F8083E1EEF0E049
:1004700080818E7E80838DE08093E2008AB18062ED
:100480008AB984B1816084B98BB18F7D8BB985B114
:100490008E7F85B908958093E9008091F2008823CA
:1004A00019F08AE38093E8000895CF93DF93EC017D
:1004B000AB014115510539F14134510514F4DA010C
:1004C00002C0A0E4B0E09091E80092FFFCCF9A2F28
:1004D000FB01E41BF50BEC0FFD1F2FEF290F9923F8
:1004E00031F09091F1009083922F3196F6CF95B133
:1004F000916095B984E68093A9018BEF8093E80021
:100500004A1B5B0BD6CFCB01DF91CF910895409171
:10051000A7015091A8012091A5013091A601421791
:100520005307B4F49091E8009570E1F39091E800DE
:1005300092FD19C08093F1008091A7019091A801CC
:1005400001968F739927892B19F48EEF8093E80019
:100550008091A7019091A80101969093A8018093A2
:10056000A70181E0089580E00895EF92FF920F9334
:100570001F93CF93DF938C01E62EF42E862F90E00D
:100580000196880F0E94870283E00E948702D0E0D4
:10059000DE15A8F4FF202CF4F801ED0FF11D849175
:1005A00004C0F801ED0FF11D80810E948702C82F61
:1005B00080E00E9487028C2319F0DF5FE9CF81E0A1
:1005C000DF91CF911F910F91FF90EF900895DF92EF
:1005D000EF92FF920F931F93CF93DF93EB01D42EF3
:1005E000E52EF82E242F352F890101501109232BD8
:1005F00099F0FF203CF49E012F5F3F4FFE01849154
:10060000E90102C0888121960E9487029801811128
:10061000EBCF8FEF9FEF02C08D2D9E2DDF91CF91FD
:100620001F910F91FF90EF90DF9008951092E900D5
:100630001092A8011092A7019093A6018093A501A2
:10064000089581E08730C0F4282F30E0F901E45CA0
:10065000FE4F9081992381F08093E90091E090937F
:10066000EB00F901E45CFE4F90819093EC0096E37F
:100670009093ED008F5FE6CFEAEEF0E08EE78083A7
:10068000108208958093E90081E08093EB006093ED
:10069000EC004093ED000895CF93DF931F92CDB708
:1006A000DEB79FB79983F89487708093E9009091A3
:1006B000E800892F807295FF04C09091F20080E4D9
:1006C000891B99819FBF0F90DF91CF9108959F92D1
:1006D000AF92BF92CF92DF92EF92FF920F931F9350
:1006E000CF93DF931F92CDB7DEB7D82E8B01942E18
:1006F000A52E8091AD01882309F48BC08091AB01B8
:1007000080FF05C0E0EEF0E0808182608083E92C0C
:10071000FA2CB12C0F2EFAEFCF2EF02DE114F104AC
:1007200019F4BB2009F46CC08D2D0E944C0381117B
:100730000BC0CA94CC2009F46FC061E070E080E087
:1007400090E00E94D301EACF282F30E0E216F306B2
:100750000CF48E2D2FB72983F8942D2D277020931C
:10076000E9002091E80025FF48C0E81AF108D5FE0D
:1007700008C02FEF280F882301F11092F100822F7B
:10078000F8CFDD2074F49FEF980F8823B1F0980123
:100790002F5F3F4FF80104910093F100892F8901E9
:1007A000F2CF2FEF280F882341F0F80130813093EA
:1007B000F100822F0F5F1F4FF4CFBB2029F08AE397
:1007C0008093E800B12C16C08091E80085FD07C039
:1007D0008AE38093E800E114F10451F00BC0E114C6
:1007E000F10441F4D6FE06C08AE38093E80002C01B
:1007F000BB24B39489818FBF91CF89818FBF8ECF66
:100800008BB180628BB984E68093AA01892D9A2DE1
:1008100005C08FEF9FEF02C08FEF9FEF0F90DF912A
:10082000CF911F910F91FF90EF90DF90CF90BF90ED
:10083000AF909F900895CF93DF931F92CDB7DEB70F
:10084000FB01BA019091AD01992321F0552324F4C5
:1008500051E003C051E001C050E0511130C09FB7DA
:100860009983F89487708093E9002091F20030E03A
:10087000621773070CF49B01822F9FEF980F882358
:1008800061F085B1816085B984E68093A90180918A
:10089000F1008083892F3196F0CF2115310529F0A1
:1008A0008091F200811101C051E0552319F08BE6CF
:1008B0008093E80089818FBF822F932F02C08FEF32
:1008C0009FEF0F90DF91CF910895CF93DF931F9209
:1008D000CDB7DEB741E050E0BE016F5F7F4F0E94B1
:1008E0001B04019719F4898190E002C08FEF9FEFFC
:1008F0000F90DF91CF910895CF93DF931F92CDB7E3
:10090000DEB79FB79983F89487708093E900809150
:10091000F20099819FBF0F90DF91CF910895CF9200
:10092000DF92EF92FF920F931F93CF93DF938C018F
:10093000DB01C0E0D0E07A0181E0E81AF108452B44
:10094000A1F0F80180819181FC01208131816D014C
:10095000FFEFCF1ADF0A6C91C801F9010995892BC5
:1009600021F02196A701D601E6CFCE01DF91CF91EC
:100970001F910F91FF90EF90DF90CF900895019716
:10098000B9F46F3F7F4FA1F4E5E5F1E013821282E5
:1009900088EE93E0A0E0B0E084839583A683B783DC
:1009A00080E191E0918380838FEF9FEF958784872B
:1009B0000895CF93DF9320910B01222371F0EC0176
:1009C00083E00E9467031816190674F081E090E036
:1009D0009B838A8380E090E007C021E030E0FC0147
:1009E0003383228380E090E0DF91CF910895CF930D
:1009F000DF931F92CDB7DEB76983DC01ED91FC91E7
:100A00000280F381E02D41E050E0BE016F5F7F4F37
:100A100009950F90DF91CF91089583E00E944B02DA
:100A2000089583E00E944C0390E00895FC018485C2
:100A3000958599232CF02FEF3FEF35872487089574
:100A400082E00E9465040895CF93DF93EC018C85CA
:100A50009D8599232CF482E00E9465049D878C87F4
:100A60008C859D85DF91CF910895FC0184859585C6
:100A7000992334F082E00E947C0490E0019608956E
:100A800082E00E947C0490E008952FEF3FEFFC018C
:100A9000358724870895FC0190819E5F908342E40E
:100AA00050E06CEA70E080E80E94E7020895CF937E
:100AB000DF931F92CDB7DEB71982CE0101960E9457
:100AC0004B050E94C300BE016F5F7F4F0E942D0146
:100AD00089810F90DF91CF910895EF92FF920F934C
:100AE0001F93CF93DF93CDB7DEB729970FB6F89456
:100AF000DEBF0FBECDBF7C0180E090E00E941603F8
:100B00000E94570599E08E010F5F1F4FF801292FB2
:100B100011922A95E9F7998392E09A8391E09E8356
:100B200090EA98879AEF99872091A7013091A801C0
:100B3000275F3F4F3C832B838D83C7010E941603A1
:100B400049E050E0B80180E00E94E7020E945705AA
:100B500081E029960FB6F894DEBF0FBECDBFDF91BE
:100B6000CF911F910F91FF90EF900895EEEFFFE767
:100B70002591349181E02B3F3C4D09F080E00895B0
:100B80001F93CF93DF93EC0119818881813A59F447
:100B9000113249F447E050E064E071E080E00E94E7
:100BA000E70281E088C0813209F080C0133281F40D
:100BB0008B8190E0982F88272A81822BA0E0B0E0DB
:100BC0008093000190930101A0930201B09303016F
:100BD000103231F467E070E084E091E00E94550249
:100BE000123209F065C08A8180930B010E94B6051C
:100BF000811103C0E0E0F8E002C0EEEFFAE080917E
:100C0000040190910501A0910601B0910701803B7C
:100C10009440A105B10531F480910B0180FF04C01F
:100C200080E003C080E001C081E0882309F1EE3F4D
:100C30009AE0F90751F020813181273797E739078A
:100C400021F03093FF0A2093FE0A27E737E731832C
:100C5000208390916000909354012BE098E10FB6AF
:100C6000F894A895909360000FBE2093600023C075
:100C70008081918187379747E9F4A895A0E6B0E095
:100C80008C9188618C93809154018C93EE3F8AE023
:100C9000F80741F08091FE0A9091FF0A91838083CA
:100CA00081E009C01182108281E005C080E003C0AC
:100CB00081E001C081E0DF91CF911F910895CF9332
:100CC000DF93EC018C81811104C0CE010E94C0052C
:100CD00005C00E94C300BE010E94D100DF91CF91E8
:100CE0000895089580E090E0089540E855E260E0BE
:100CF00070E085E591E00E94450508950E941C0979
:100D0000FF920F931F93CF93DF93CDB7DEB7649716
:100D10000FB6F894DEBF0FBECDBF8C01FC01F3808F
:100D2000F2E0FF1206C0FC01868197810E946D05EA
:100D30005DC0FC01868197810E9416030E94C3005A
:100D4000B8010E940E019C01892B39F081E0121636
:100D500013060CF44BC080E049C0F1E0FF1681F1AE
:100D600083E0F81230C0F8018281882379F1823063
:100D700039F440E86DE080E191E00E94B50236C0B0
:100D8000813039F440E86BE084E091E00E94B502E4
:100D90002DC0833041F50E94C3008E010F5F1F4FAD
:100DA000B8010E94EF00F80101900020E9F73197A7
:100DB000BF01601B710B40E0C8010E94B50216C064
:100DC00062EF70E005C060E070E002C06EEE70E0BF
:100DD0006115710551F0FB01449150E080E80E94DB
:100DE000E70281E003C080E001C080E064960FB6B6
:100DF000F894DEBF0FBECDBFDF91CF911F910F9151
:100E0000FF900895DC01ED91FC910280F381E02DCB
:100E100042E050E063E471E00995089561157105C1
:100E200081F0FB0101900020E9F73197AF01461BEB
:100E3000570BDC01ED91FC910280F381E02D0995C7
:100E4000089580E090E008950F931F93CF93DF9370
:100E5000EC010E940E078C01CE010E940207800F58
:100E6000911FDF91CF911F910F91089566E471E07A
:100E700085E591E00E94240768EE73E080E090E051
:100E80000E94D30108951F920F920FB60F92112462
:100E90000F931F932F933F934F935F936F937F9382
:100EA0008F939F93AF93BF930091B0011091B101C5
:100EB0002091B2013091B3019091AF01B901A80125
:100EC0004F5F5F4F6F4F7F4F83E0890F8D3740F04B
:100ED00086E8890FB901A8014E5F5F4F6F4F7F4FC2
:100EE0008093AF014093B0015093B1016093B20180
:100EF0007093B3018091B4019091B501A091B601B6
:100F0000B091B7010196A11DB11D8093B4019093DA
:100F1000B501A093B601B093B701BF91AF919F9176
:100F20008F917F916F915F914F913F912F911F9181
:100F30000F910F900FBE0F901F9018950E945701B0
:100F40008EEA91E00E940E020E9475060E9436070A
:100F500080E090E0892BD1F30E940000F7CF1F9230
:100F60000F920FB60F9211242F933F934F935F93DD
:100F70006F937F938F939F93AF93BF93CF93EF9391
:100F8000FF93E1EEF0E0C0818081837F8083C3FF27
:100F90000AC042E360E080E00E9442031092AD018B
:100FA00088E08093F000C2FF2DC083E00E944B02D6
:100FB0008091AA01882349F08091AA0181508093F1
:100FC000AA01811104C081E003C080E001C080E07B
:100FD000882319F08BB18F7D8BB98091A90188236B
:100FE00049F08091A90181508093A901811104C029
:100FF00081E003C080E001C080E0882319F085B162
:101000008E7F85B9C4FF12C0E2EEF0E080818E7E53
:1010100081608083E1EEF0E080818F7E808380912B
:10102000AB018E7E80618093AB0113C0C0FF11C005
:10103000E2EEF0E080818E7E80618083E1EEF0E080
:1010400080818E7E80838091AB018E7E81608093D3
:10105000AB01FF91EF91CF91BF91AF919F918F9194
:101060007F916F915F914F913F912F910F900FBEA4
:101070000F901F9018951F920F920FB60F92112488
:101080002F933F934F935F936F937F938F939F9390
:10109000AF93BF93EF93FF93CF93DF93CDB7DEB7BB
:1010A0002897DEBFCDBF1092E9008091E80083FF52
:1010B0009DC088E0FE0131969FEF980F882331F0A4
:1010C0008091F1008083892F3196F6CF85B18160C0
:1010D00085B984E68093A90182EF8093E800298195
:1010E00022232CF48091E80080FFFCCF03C08EEF18
:1010F0008093E800822F807609F059C03A814B81B5
:101100008C8190E0982F8827842B311110C02038D3
:1011100041F48091AC01E1EFF0E08083108281E046
:101120005CC0E1EFF0E01082108281E056C0313007
:1011300061F4211145C0019709F044C08091AC01D0
:101140008D7F8093AC0181E048C0333059F4211188
:101150003BC00197D9F58091AC0182608093AC01CE
:1011600081E03BC0353049F48091E80080FFFCCF3E
:1011700040684093E30081E030C0363029F4CE016E
:1011800001960E94800629C0373011F1383021F4D1
:1011900081E08093F10021C03930E1F42370E1F463
:1011A0000E9421038B818093AD0181E016C08F8165
:1011B00098850E941603CE0101960E945F060DC01D
:1011C00081E00BC081E009C081E007C081E005C07B
:1011D00080E003C081E001C080E0882321F08EEF31
:1011E0008093E80003C081E28093EB0028960FB65D
:1011F000F894DEBF0FBECDBFDF91CF91FF91EF918D
:10120000BF91AF919F918F917F916F915F914F911E
:101210003F912F910F900FBE0F901F9018956FEF79
:101220007FEF81E090E00E94BF040895EE0FFF1F62
:101230000590F491E02D099481E090E0F8940C94ED
:061240002109F894FFCF24
:10124600FFFFFFFF00E100000000000000000000BB
:10125600F704D90411050D0535051605240500000A
:1012660000007E068F04720671067E067E067E06E6
:10127600000000007E068F047206710600C18081A0
:101286000000000D0A0048656C6C6F20576F726C89
:0412960064210000CF
:00000001FF
