:100000000C94DB000C94F8000C94F8000C94F800AD
:100010000C94F8000C94F8000C94F8000C94F80080
:100020000C94F8000C94F8000C94EE070C947A08E9
:100030000C94F8000C94F8000C94F8000C94F80060
:100040000C94F8000C94F8000C94F8000C94F80050
:100050000C94F8000C94F8000C94F8000C944E09E1
:100060000C94F8000C94F8000C94F8000C94F80030
:100070000C94F8000C94F8000C94F8000C94F80020
:100080000C94F8000C94F8000C94F8000C94F80010
:100090000C94F8000C94F8000C94F8000C94F80000
:1000A0000C94F8000C94F8000C94F800ED04F104A2
:1000B000DB04E104E704180518051805F504FB0442
:1000C000010507050D0518051305000000002400B3
:1000D00027002A002D003000000000002500280025
:1000E0002B002E0031000404040404030405020262
:1000F00002020403020202020606060606060404C1
:100100000202020404040802011040804010204052
:1001100080408008020401804020100201108010FD
:10012000204040200000000200090F0000030401ED
:10013000000C0000000000000000000000000000B3
:100140000000000403090412010002EF0201404113
:1001500023378000010102030141726475696E6FEB
:10016000204C4C430041726475696E6F204D696389
:10017000726F00080B000202020100090400000176
:1001800002020000052400100105240101010424DD
:10019000020605240600010705810310004009043A
:1001A0000100020A000000070502024000000705E6
:1001B00083024000000011241FBECFEFDAE0DEBF53
:1001C000CDBF11E0A0E0B1E0EEE8F3E102C00590A0
:1001D0000D92A431B107D9F721E0A4E1B1E001C04B
:1001E0001D92A433B207E1F70E94A9090C94C50936
:1001F0000C940000CF92DF92EF92FF920F931F9327
:10020000CF93DF938C01DB01C0E0D0E07A0181E085
:10021000E81AF108452BA1F0F80180819181FC01D9
:10022000208131816D01FFEFCF1ADF0A6C91C80187
:10023000F9010995892B21F02196A701D601E6CF76
:10024000CE01DF91CF911F910F91FF90EF90DF9042
:10025000CF900895FC0182E0808384E08183138243
:100260001282089580912C01811107C088E291E0EB
:100270000E942A0181E080932C0188E291E0089598
:100280000F931F93CF93DF938B01FC01C281D38126
:10029000209771F0E881F9810190F081E02DB8019B
:1002A000CE010995811105C00884D985C02DF0CFF4
:1002B00080E0DF91CF911F910F9108950F931F93CD
:1002C000CF93DF938B01FC01C281D381209771F022
:1002D000E881F9810680F781E02DB801CE0109950A
:1002E000080F111D0884D985C02DF0CFF8011082A8
:1002F000DF91CF911F910F9108950F931F93CF938B
:10030000DF938B01FC01C281D381209771F0E881DA
:10031000F9810480F581E02DB801CE01099500979F
:1003200031F40884D985C02DF0CF80E090E0DF91D2
:10033000CF911F910F910895EF92FF920F931F930A
:10034000CF93DF937B01FC01C281D38100E010E0F9
:10035000209781F0E881F9810280F381E02DB701D7
:10036000CE01099599234CF0080F191F0884D985EF
:10037000C02DEECF802F912F02C08FEF9FEFDF9126
:10038000CF911F910F91FF90EF9008950895CF9313
:10039000DF931F92CDB7DEB76983DC01ED91FC914D
:1003A0000280F381E02D41E050E0BE016F5F7F4F9E
:1003B00009950F90DF91CF910895EEEFFFE725911A
:1003C000349181E02B3F3C4D09F080E00895089581
:1003D00080E090E0089508958093E9008091F20014
:1003E000882319F08AE38093E800089583E00E944F
:1003F000EC010895CF93DF93EC01AB01411551055A
:1004000039F14134510514F4DA0102C0A0E4B0E03E
:100410009091E80092FFFCCF9A2FFB01E41BF50BB3
:10042000EC0FFD1F2FEF290F992331F09091F10070
:100430009083922F3196F6CF95B1916095B984E66D
:10044000809322018BEF8093E8004A1B5B0BD6CF91
:10045000CB01DF91CF91089540912001509121016E
:1004600020911E0130911F0142175307B4F490915F
:10047000E8009570E1F39091E80092FD19C0809337
:10048000F100809120019091210101968F739927AD
:10049000892B19F48EEF8093E800809120019091D0
:1004A00021010196909321018093200181E008951C
:1004B00080E00895EF92FF920F931F93CF93DF9305
:1004C0008C01E62EF42E862F90E00196880F0E9474
:1004D0002C0283E00E942C02D0E0DE15A8F4FF205D
:1004E0002CF4F801ED0FF11D849104C0F801ED0F1B
:1004F000F11D80810E942C02C82F80E00E942C02F6
:100500008C2319F0DF5FE9CF81E0DF91CF911F915C
:100510000F91FF90EF900895DF92EF92FF920F936B
:100520001F93CF93DF93EB01D42EE52EF82E242FCB
:10053000352F890101501109232B99F0FF203CF43C
:100540009E012F5F3F4FFE018491E90102C0888127
:1005500021960E942C0298018111EBCF8FEF9FEF23
:1005600002C08D2D9E2DDF91CF911F910F91FF9095
:10057000EF90DF9008951F93CF93DF93EC011981E3
:100580008881813A59F4113249F447E050E064E03F
:1005900071E080E00E948C0281E088C0813209F025
:1005A00080C0133281F48B8190E0982F88272A81B4
:1005B000822BA0E0B0E08093000190930101A09312
:1005C0000201B0930301103231F467E070E084E07F
:1005D00091E00E94FA01123209F065C08A8180938D
:1005E0000B010E94DD01811103C0E0E0F8E002C0D0
:1005F000EEEFFAE08091040190910501A0910601CF
:10060000B0910701803B9440A105B10531F4809180
:100610000B0180FF04C080E003C080E001C081E0E6
:10062000882309F1EE3F9AE0F90751F020813181EA
:10063000273797E7390721F03093FF0A2093FE0A06
:1006400027E737E73183208390916000909327015B
:100650002BE098E10FB6F894A895909360000FBE38
:100660002093600023C08081918187379747E9F408
:10067000A895A0E6B0E08C9188618C9380912701C9
:100680008C93EE3F8AE0F80741F08091FE0A90914A
:10069000FF0A9183808381E009C01182108281E08A
:1006A00005C080E003C081E001C081E0DF91CF910F
:1006B0001F910895FC0190819E5F908342E450E079
:1006C00063E771E080E80E948C020895CF93DF9386
:1006D0001F92CDB7DEB71982CE0101960E945A0350
:1006E0000E943201BE016F5F7F4F0E949C01898191
:1006F0000F90DF91CF9108951092E900109221019F
:100700001092200190931F0180931E010895EF9293
:10071000FF920F931F93CF93DF93CDB7DEB7299747
:100720000FB6F894DEBF0FBECDBF7C0180E090E035
:100730000E947C030E94660399E08E010F5F1F4FA9
:10074000F801292F11922A95E9F7998392E09A836B
:1007500091E09E8390EA98879AEF998720912001F3
:1007600030912101275F3F4F3C832B838D83C7014D
:100770000E947C0349E050E0B80180E00E948C02B6
:100780000E94660381E029960FB6F894DEBF0FBE83
:10079000CDBFDF91CF911F910F91FF90EF90089502
:1007A000CF93DF93EC018C81811104C0CE010E94B4
:1007B000BB0205C00E943201BE010E944001DF91D0
:1007C000CF91089581E08730C0F4282F30E0F901FF
:1007D000E45FFE4F9081992381F08093E90091E0DE
:1007E0009093EB00F901E45FFE4F90819093EC0051
:1007F00096E39093ED008F5FE6CFEAEEF0E08EE7B0
:100800008083108208958093E90081E08093EB005B
:100810006093EC004093ED000895CF93DF931F9217
:10082000CDB7DEB79FB79983F89487708093E900BE
:100830009091E800892F807295FF04C09091F2009A
:1008400080E4891B99819FBF0F90DF91CF9108951C
:1008500083E00E940D0490E00895CF93DF931F92F0
:10086000CDB7DEB7FB01BA0190912601992321F0A3
:10087000552324F451E003C051E001C050E0511170
:1008800030C09FB79983F89487708093E9002091D6
:10089000F20030E0621773070CF49B01822F9FEF88
:1008A000980F882361F085B1816085B984E68093D3
:1008B00022018091F1008083892F3196F0CF21159C
:1008C000310529F08091F200811101C051E05523DA
:1008D00019F08BE68093E80089818FBF822F932FD8
:1008E00002C08FEF9FEF0F90DF91CF910895CF93CC
:1008F000DF931F92CDB7DEB741E050E0BE016F5FDE
:100900007F4F0E942D04019719F4898190E002C065
:100910008FEF9FEF0F90DF91CF910895FC018485B9
:10092000958599232CF02FEF3FEF35872487089585
:1009300082E00E9477040895CF93DF93EC018C85C9
:100940009D8599232CF482E00E9477049D878C87F3
:100950008C859D85DF91CF910895CF93DF931F9272
:10096000CDB7DEB79FB79983F89487708093E9007D
:100970008091F20099819FBF0F90DF91CF910895F0
:10098000FC0184859585992334F082E00E94AD04B2
:1009900090E00196089582E00E94AD0490E00895F1
:1009A00090E0FC013197EF30F10508F041C0EA5AC0
:1009B000FF4F0C94BA09E0E8F0E080818F778083E4
:1009C0000895E0E8F0E080818F7D80830895E0E87D
:1009D000F0E08081877F8083089584B58F7784BD20
:1009E000089584B58F7D84BD0895E0E9F0E08081AD
:1009F0008F7780830895E0E9F0E080818F7D8083A8
:100A00000895E0E9F0E08081877F80830895E0EC3D
:100A1000F0E080818F7780830895E0ECF0E08081C2
:100A20008F7D80830895E2ECF0E08081877F808372
:100A300008951F93CF93DF93282F30E0F901EC5DE9
:100A4000FE4F8491F901EB5FFE4F1491F901EA51D9
:100A5000FF4FC491CC23D1F0D62F81110E94D00436
:100A6000EC2FF0E0EE0FFF1FE852FF4FA591B4917D
:100A70008FB7F894D11106C09C91E12FE095E9233E
:100A8000EC9303C0EC91E12BEC938FBFDF91CF91FE
:100A90001F910895CF93DF9390E0FC01EB5FFE4F31
:100AA0002491FC01EA51FF4F8491882379F190E071
:100AB000880F991FFC01E653FF4FA591B491FC01EB
:100AC000E852FF4FC591D49161110CC09FB7F894C3
:100AD0008C91E22FE0958E238C932881E223E8838A
:100AE0009FBF14C0623061F49FB7F8948C91322F8D
:100AF000309583238C93E881E22BE8839FBF06C067
:100B00008FB7F894EC91E22BEC938FBFDF91CF91EC
:100B10000895789484B5826084BD84B5816084BD75
:100B200085B5826085BD85B5816085BDEEE6F0E066
:100B3000808181608083E1E8F0E0108280818260C2
:100B40008083808181608083E0E8F0E08081816043
:100B50008083E1E9F0E08081826080838081816030
:100B60008083E0E9F0E0808181608083E1ECF0E067
:100B700080818460808380818260808380818160C5
:100B80008083E3ECF0E0808181608083E0ECF0E042
:100B9000808182608083E2ECF0E0808181608083EC
:100BA000EAE7F0E0808184608083808182608083D6
:100BB00080818160808380818068808308953FB7D1
:100BC000F89480911A0190911B01A0911C01B091A1
:100BD0001D0126B5A89B05C02F3F19F00196A11D48
:100BE000B11D3FBFBA2FA92F982F8827820F911DC3
:100BF000A11DB11DBC01CD01660F771F881F991F74
:100C0000660F771F881F991F08958F929F92AF924A
:100C1000BF92CF92DF92EF92FF926B017C010E9414
:100C2000DF054B015C011DC021E0C21AD108E108BB
:100C3000F10888EE880E83E0981EA11CB11CC11437
:100C4000D104E104F10469F00E94DF05DC01CB016D
:100C500088199909AA09BB09883E9340A105B105E5
:100C600018F7C114D104E104F10449F7FF90EF90A3
:100C7000DF90CF90BF90AF909F908F90089510928B
:100C800026011092250110922401E7EDF0E0808109
:100C90008160808380EA8093D80089B5806189BDB6
:100CA00089B5826089BD09B400FEFDCF61E070E0C6
:100CB00080E090E00E940506E8EDF0E080818F7C06
:100CC00080618083E0EEF0E08081807F8083E1EED0
:100CD000F0E080818E7E80838DE08093E2008AB197
:100CE00080628AB984B1816084B98BB18F7D8BB900
:100CF00085B18E7F85B908959F92AF92BF92CF92B2
:100D0000DF92EF92FF920F931F93CF93DF931F9287
:100D1000CDB7DEB7D82E8B01942EA52E809126015B
:100D2000882309F48BC08091240180FF05C0E0EE88
:100D3000F0E0808182608083E92CFA2CB12C0F2EA8
:100D4000FAEFCF2EF02DE114F10419F4BB2009F4D1
:100D50006CC08D2D0E940D0481110BC0CA94CC2053
:100D600009F46FC061E070E080E090E00E94050649
:100D7000EACF282F30E0E216F3060CF48E2D2FB7C1
:100D80002983F8942D2D27702093E9002091E80005
:100D900025FF48C0E81AF108D5FE08C02FEF280F3C
:100DA000882301F11092F100822FF8CFDD2074F436
:100DB0009FEF980F8823B1F098012F5F3F4FF80104
:100DC00004910093F100892F8901F2CF2FEF280FB2
:100DD000882341F0F80130813093F100822F0F5FBA
:100DE0001F4FF4CFBB2029F08AE38093E800B12C99
:100DF00016C08091E80085FD07C08AE38093E80073
:100E0000E114F10451F00BC0E114F10441F4D6FEF9
:100E100006C08AE38093E80002C0BB24B3948981B2
:100E20008FBF91CF89818FBF8ECF8BB180628BB9FD
:100E300084E680932301892D9A2D05C08FEF9FEFC3
:100E400002C08FEF9FEF0F90DF91CF911F910F9115
:100E5000FF90EF90DF90CF90BF90AF909F9008955C
:100E6000CF93DF9320910B01222371F0EC0183E0FB
:100E70000E947C061816190674F081E090E09B83AE
:100E80008A8380E090E007C021E030E0FC013383FA
:100E9000228380E090E0DF91CF910895089561E092
:100EA0008DE00E94190568EE73E080E090E00E94FA
:100EB000050660E08DE00E94190568EE73E080E0B1
:100EC00090E00E940506089561E08DE00E944A05C9
:100ED00008950E94C009FF920F931F93CF93DF9351
:100EE000CDB7DEB764970FB6F894DEBF0FBECDBFA7
:100EF0008C01FC01F380F2E0FF1206C0FC01868148
:100F000097810E9487035DC0FC01868197810E94C2
:100F10007C030E943201B8010E947D019C01892B53
:100F200039F081E0121613060CF44BC080E049C082
:100F3000F1E0FF1681F183E0F81230C0F801828100
:100F4000882379F1823039F440E86DE085E691E05C
:100F50000E945A0236C0813039F440E86BE089E5DE
:100F600091E00E945A022DC0833041F50E94320167
:100F70008E010F5F1F4FB8010E945E01F8010190C2
:100F80000020E9F73197BF01601B710B40E0C801F9
:100F90000E945A0216C067E471E005C060E070E08C
:100FA00002C063E471E06115710551F0FB014491E9
:100FB00050E080E80E948C0281E003C080E001C024
:100FC00080E064960FB6F894DEBF0FBECDBFDF9110
:100FD000CF911F910F91FF90089508951F920F9246
:100FE0000FB60F9211242F933F934F935F936F93FC
:100FF0007F938F939F93AF93BF93CF93EF93FF9381
:10100000E1EEF0E0C0818081837F8083C3FF0AC06E
:1010100042E360E080E00E9403041092260188E031
:101020008093F000C2FF2DC083E00E94EC0180910C
:101030002301882349F0809123018150809323016B
:10104000811104C081E003C080E001C080E08823FA
:1010500019F08BB18F7D8BB980912201882349F0E3
:1010600080912201815080932201811104C081E08E
:1010700003C080E001C080E0882319F085B18E7F35
:1010800085B9C4FF12C0E2EEF0E080818E7E8160FF
:101090008083E1EEF0E080818F7E80838091240167
:1010A0008E7E80618093240113C0C0FF11C0E2EEE8
:1010B000F0E080818E7E80618083E1EEF0E08081CF
:1010C0008E7E8083809124018E7E816080932401B6
:1010D000FF91EF91CF91BF91AF919F918F917F91B0
:1010E0006F915F914F913F912F910F900FBE0F9095
:1010F0001F9018951F920F920FB60F9211242F93E5
:101100003F934F935F936F937F938F939F93AF938F
:10111000BF93EF93FF93CF93DF93CDB7DEB72897BD
:10112000DEBFCDBF1092E9008091E80083FF9DC033
:1011300088E0FE0131969FEF980F882331F080916F
:10114000F1008083892F3196F6CF85B1816085B912
:1011500084E68093220182EF8093E8002981222394
:101160002CF48091E80080FFFCCF03C08EEF8093C9
:10117000E800822F807609F059C03A814B818C813A
:1011800090E0982F8827842B311110C0203841F42B
:1011900080912501E1EFF0E08083108281E05CC066
:1011A000E1EFF0E01082108281E056C0313061F44E
:1011B000211145C0019709F044C0809125018D7F20
:1011C0008093250181E048C0333059F421113BC0A0
:1011D0000197D9F58091250182608093250181E0F6
:1011E0003BC0353049F48091E80080FFFCCF406877
:1011F0004093E30081E030C0363029F4CE010196FF
:101200000E946B0729C0373011F1383021F481E09A
:101210008093F10021C03930E1F42370E1F40E94A1
:10122000E2038B818093260181E016C08F8198852F
:101230000E947C03CE0101960E94D0030DC081E084
:101240000BC081E009C081E007C081E005C080E0FB
:1012500003C081E001C080E0882321F08EEF8093FD
:10126000E80003C081E28093EB0028960FB6F89463
:10127000DEBF0FBECDBFDF91CF91FF91EF91BF9148
:10128000AF919F918F917F916F915F914F913F911E
:101290002F910F900FBE0F901F9018951F920F92D5
:1012A0000FB60F9211240F931F932F933F934F93D9
:1012B0005F936F937F938F939F93AF93BF930091AF
:1012C0001601109117012091180130911901909188
:1012D0001501B901A8014F5F5F4F6F4F7F4F83E04A
:1012E000890F8D3740F086E8890FB901A8014E5F5C
:1012F0005F4F6F4F7F4F80931501409316015093BE
:101300001701609318017093190180911A0190914F
:101310001B01A0911C01B0911D010196A11DB11DE1
:1013200080931A0190931B01A0931C01B0931D019F
:10133000BF91AF919F918F917F916F915F914F91ED
:101340003F912F911F910F910F900FBE0F901F9003
:1013500018950E94890584E191E00E943F060E9451
:1013600064070E944F0780E090E0892BD1F30E9430
:101370000000F7CFEE0FFF1F0590F491E02D0994C8
:0E13800081E090E0F8940C94C509F894FFCF3A
:10138E00FFFFFFFF00E100000000000000C18081B0
:04139E00000000004B
:00000001FF
