:100000000C943A010C9462010C9462010C9462010C
:100010000C9462010C9462010C9462010C946201D4
:100020000C9462010C9462010C94560B0C94E20B3C
:100030000C9462010C9462010C9462010C946201B4
:100040000C9462010C9462010C9462010C946201A4
:100050000C9462010C9462010C9462010C94B60C35
:100060000C9462010C9462010C9462010C94620184
:100070000C9462010C9462010C9462010C94620174
:100080000C9462010C9462010C9462010C94620164
:100090000C9462010C9462010C9462010C94620154
:1000A0000C9462010C9462010C9462019306970611
:1000B000810687068D06BE06BE06BE069B06A10605
:1000C000A706AD06B306BE06B90605010906A101DD
:1000D0008502050719E029E7150025017501950836
:1000E0008102950175088103950675081500257331
:1000F0000507190029738100C000000000000000FE
:10010000002A2B2800000000000000000000000072
:100110000000000000000000002C9EB4A0A1A2A4DA
:1001200034A6A7A5AE362D3738271E1F202122233F
:10013000242526B333B62EB7B89F84858687888951
:100140008A8B8C8D8E8F9091929394959697989997
:100150009A9B9C9D2F3130A3AD35040506070809F5
:100160000A0B0C0D0E0F1011121314151617181977
:100170001A1B1C1DAFB1B0B50000000000250028FF
:10018000002B002E00310000000000240027002A70
:10019000002D003000000000002300260029002C64
:1001A000002F0004040404040304050202020204F4
:1001B0000302020202060606060606040402020202
:1001C0000404040802011040804010204080408058
:1001D00008020401804020100201108010204040DD
:1001E000200000000200090F0000030401000C00C1
:1001F00000000000000000000000000000000000FF
:100200000403090412010002EF0201404123378078
:1002100000010102030141726475696E6F204C4C4C
:10022000430041726475696E6F204D6963726F009F
:10023000080B000202020100090400000102020092
:100240000005240010010524010101042402060513
:100250002406000107058103100040090401000283
:100260000A00000007050202400000070583024063
:1002700000004F0B11241FBECFEFDAE0DEBFCDBF71
:1002800011E0A0E0B1E0EEE5FAE102C005900D92C8
:10029000A434B107D9F721E0A4E4B1E001C01D9274
:1002A000A739B207E1F711E0CAE3D1E004C0219712
:1002B000FE010E94220DC933D107C9F70E94110D1A
:1002C0000C942D0D0C940000FC01228130E0FB0108
:1002D0004481558124173507D1F431812081213A99
:1002E00021F43130B1F03330B1F02132B1F43B3090
:1002F00031F4FB012281FC01278781E008953A3027
:1003000071F4FB012281FC01208B81E0089580E0E3
:10031000089581E0089581E0089580E0089580E0E7
:100320000895DC011B96ED91FC911C97309731F4F8
:100330001C967C936E931B9708C0F9012081318134
:1003400021153105D1F771836083FB01848195818B
:100350001D962D913C911E97820F931F1E969C9384
:100360008E931D970895DC01FB0188E4808389E466
:10037000818384E482831D969C911D979F709F5B6F
:1003800093831D968D919C911E97929582958F7067
:1003900089279F7089278F708F5B848385E00895FC
:1003A000FC0182818F5BFB01808381E00895FC0169
:1003B00082E0808384E08183138212820895809199
:1003C0007601811107C082E791E00E94D70181E0A8
:1003D0008093760182E791E00895CF93DF93EC015B
:1003E0002981FB01848190E0820F911D089764F5BB
:1003F000EA81FB81309721F47B836A8307C0FC018B
:10040000808591850097D9F7718760878881FB0186
:1004100082838981838385819881890F888320E005
:10042000FB018481281790F49981492F50E0A6811F
:10043000B781A20FB11DFA01E45FFE4F8C9180835A
:100440009F5F99832F5FECCF80E001C081E0DF9157
:10045000CF910895CF93DF93EC019C01265F3F4F2E
:1004600081E08C838D833F832E83198618862FE24B
:1004700031E0398328831C861B861E861D868F8764
:10048000888B81EC8A870E94DF01BE010E94ED010A
:10049000DF91CF91089580918F01811107C08EE780
:1004A00091E00E942A0281E080938F018EE791E023
:1004B00008950F931F93CF93DF938B01FC01C281AB
:1004C000D381209771F0E881F9810190F081E02DCE
:1004D000B801CE010995811105C00884D985C02DC8
:1004E000F0CF80E0DF91CF911F910F9108950F938E
:1004F0001F93CF93DF938B01FC01C281D38120979F
:1005000071F0E881F9810680F781E02DB801CE0114
:100510000995080F111D0884D985C02DF0CFF80169
:100520001082DF91CF911F910F9108950F931F9328
:10053000CF93DF938B01FC01C281D381209771F0AF
:10054000E881F9810480F581E02DB801CE0109959B
:10055000009731F40884D985C02DF0CF80E090E079
:10056000DF91CF911F910F910895EF92FF920F931A
:100570001F93CF93DF937B01FC01C281D38100E005
:1005800010E0209781F0E881F9810280F381E02D6D
:10059000B701CE01099599234CF0080F191F088463
:1005A000D985C02DEECF802F912F02C08FEF9FEF06
:1005B000DF91CF911F910F91FF90EF9008950895D3
:1005C000CF93DF931F92CDB7DEB76983DC01ED9146
:1005D000FC910280F381E02D41E050E0BE016F5FAD
:1005E0007F4F09950F90DF91CF910895EEEFFFE7D0
:1005F0002591349181E02B3F3C4D09F080E0089536
:1006000008958093E9008091F200882319F08AE32D
:100610008093E800089583E00E9401030895CF933A
:10062000DF93EC01AB014115510539F1413451051E
:1006300014F4DA0102C0A0E4B0E09091E80092FF67
:10064000FCCF9A2FFB01E41BF50BEC0FFD1F2FEFE6
:10065000290F992331F09091F1009083922F3196D8
:10066000F6CF95B1916095B984E680936C018BEFDC
:100670008093E8004A1B5B0BD6CFCB01DF91CF9173
:10068000089540916A0150916B0120916801309169
:10069000690142175307B4F49091E8009570E1F3B3
:1006A0009091E80092FD19C08093F10080916A0159
:1006B00090916B0101968F739927892B19F48EEF16
:1006C0008093E80080916A0190916B01019690936C
:1006D0006B0180936A0181E0089580E00895EF92B4
:1006E000FF920F931F93CF93DF938C01E62EF42E8E
:1006F000862F90E00196880F0E94410383E00E94BC
:100700004103D0E0DE15A8F4FF202CF4F801ED0F32
:10071000F11D849104C0F801ED0FF11D80810E944C
:100720004103C82F80E00E9441038C2319F0DF5F52
:10073000E9CF81E0DF91CF911F910F91FF90EF9072
:100740000895DF92EF92FF920F931F93CF93DF9361
:10075000EB01D42EE52EF82E242F352F89010150E0
:100760001109232B99F0FF203CF49E012F5F3F4F8E
:10077000FE018491E90102C0888121960E94410313
:1007800098018111EBCF8FEF9FEF02C08D2D9E2D31
:10079000DF91CF911F910F91FF90EF90DF9008951F
:1007A000EF92FF920F931F93CF93DF93FC01DB0136
:1007B0009C91913861F513968C911397823251F583
:1007C00014962D913C911597828190E02817390756
:1007D00021F57F01C385D48500E010E0209789F0E2
:1007E0004C815D816A817B8180E80E94A1038F3FFB
:1007F000BFEF9B07A9F0080F191F0990D881C02DE2
:10080000EDCF81E0F7018787802F912F0BC080E02B
:1008100090E008C080E090E005C080E090E002C079
:100820008FEF9FEFDF91CF911F910F91FF90EF908E
:100830000895CF93DF93CDB7DEB769970FB6F894DD
:10084000DEBF0FBECDBFFC01DB018C918F5F8C93AF
:10085000BE016F5F7F4F89E1DB011D928A95E9F749
:1008600029E0298384E08A8391E09D8383E08E835D
:100870002A8721E22B879C879D879F8722E2288BEE
:1008800027E02B8B25E02C8B8E8B20E430E0388FFB
:100890002F8B998F82818B838585898B86858A8B27
:1008A000838180688D8B49E150E080E00E94A10344
:1008B00069960FB6F894DEBF0FBECDBFDF91CF9122
:1008C00008951F93CF93DF93EC0119818881813ABA
:1008D00059F4113249F447E050E064E071E080E0FF
:1008E0000E94A10381E088C0813209F080C01332E8
:1008F00081F48B8190E0982F88272A81822BA0E0B9
:10090000B0E08093000190930101A0930201B093A5
:100910000301103231F467E070E084E091E00E945E
:100920000F03123209F065C08A8180930B010E9487
:10093000F602811103C0E0E0F8E002C0EEEFFAE059
:100940008091040190910501A0910601B0910701E9
:10095000803B9440A105B10531F480910B0180FFEB
:1009600004C080E003C080E001C081E0882309F179
:10097000EE3F9AE0F90751F020813181273797E760
:10098000390721F03093FF0A2093FE0A27E737E763
:100990003183208390916000909371012BE098E166
:1009A0000FB6F894A895909360000FBE2093600056
:1009B00023C08081918187379747E9F4A895A0E605
:1009C000B0E08C9188618C93809171018C93EE3FA3
:1009D0008AE0F80741F08091FE0A9091FF0A918326
:1009E000808381E009C01182108281E005C080E02F
:1009F00003C081E001C081E0DF91CF911F91089594
:100A0000FC0190819E5F908342E450E060E372E0DD
:100A100080E80E94A1030895CF93DF931F92CDB782
:100A2000DEB71982CE0101960E9400050E94DF0107
:100A3000BE016F5F7F4F0E94B50289810F90DF91E9
:100A4000CF9108951092E90010926B0110926A0103
:100A500090936901809368010895EF92FF920F933C
:100A60001F93CF93DF93CDB7DEB729970FB6F894D6
:100A7000DEBF0FBECDBF7C0180E090E00E9422056A
:100A80000E940C0599E08E010F5F1F4FF801292F7E
:100A900011922A95E9F7998392E09A8391E09E83D7
:100AA00090EA98879AEF998720916A0130916B01BB
:100AB000275F3F4F3C832B838D83C7010E94220514
:100AC00049E050E0B80180E00E94A1030E940C05BB
:100AD00081E029960FB6F894DEBF0FBECDBFDF913F
:100AE000CF911F910F91FF90EF900895CF93DF93D7
:100AF000EC018C81811104C0CE010E94610405C00B
:100B00000E94DF01BE010E945902DF91CF9108953A
:100B100081E08730C0F4282F30E0F901E45FFE4F18
:100B20009081992381F08093E90091E09093EB000C
:100B3000F901E45FFE4F90819093EC0096E390936F
:100B4000ED008F5FE6CFEAEEF0E08EE78083108263
:100B500008958093E90081E08093EB006093EC00BE
:100B60004093ED000895CF93DF931F92CDB7DEB78A
:100B70009FB79983F89487708093E9009091E8007B
:100B8000892F807295FF04C09091F20080E4891B48
:100B900099819FBF0F90DF91CF91089583E00E94CC
:100BA000B30590E00895CF93DF931F92CDB7DEB7E2
:100BB000FB01BA0190917001992321F0552324F48F
:100BC00051E003C051E001C050E0511130C09FB767
:100BD0009983F89487708093E9002091F20030E0C7
:100BE000621773070CF49B01822F9FEF980F8823E5
:100BF00061F085B1816085B984E680936C01809154
:100C0000F1008083892F3196F0CF2115310529F02D
:100C10008091F200811101C051E0552319F08BE65B
:100C20008093E80089818FBF822F932F02C08FEFBE
:100C30009FEF0F90DF91CF910895CF93DF931F9295
:100C4000CDB7DEB741E050E0BE016F5F7F4F0E943D
:100C5000D305019719F4898190E002C08FEF9FEFCF
:100C60000F90DF91CF910895FC018485958599239C
:100C70002CF02FEF3FEF35872487089582E00E9404
:100C80001D060895CF93DF93EC018C859D859923F4
:100C90002CF482E00E941D069D878C878C859D85A3
:100CA000DF91CF910895CF93DF931F92CDB7DEB739
:100CB0009FB79983F89487708093E9008091F20040
:100CC00099819FBF0F90DF91CF910895FC0184859A
:100CD0009585992334F082E00E94530690E00196B6
:100CE000089582E00E94530690E0089590E0FC0190
:100CF0003197EF30F10508F041C0EA5AFF4F0C94EC
:100D0000220DE0E8F0E080818F7780830895E0E8AD
:100D1000F0E080818F7D80830895E0E8F0E08081BD
:100D2000877F8083089584B58F7784BD089584B5C7
:100D30008F7D84BD0895E0E9F0E080818F77808326
:100D40000895E0E9F0E080818F7D80830895E0E9F7
:100D5000F0E08081877F80830895E0ECF0E080817F
:100D60008F7780830895E0ECF0E080818F7D808331
:100D70000895E2ECF0E08081877F80830895CF932F
:100D8000DF93282F30E0F901EF51FE4F8491F901F4
:100D9000EE53FE4FD491F901ED55FE4FC491CC2393
:100DA00089F081110E947606EC2FF0E0EE0FFF1F14
:100DB000EB56FE4FA591B491EC91ED2331F081E01B
:100DC00090E005C080E090E002C080E090E0DF911C
:100DD000CF910895CF93DF9390E0FC01EE53FE4F47
:100DE0002491FC01ED55FE4F8491882379F190E028
:100DF000880F991FFC01E957FE4FA591B491FC01A2
:100E0000E758FE4FC591D49161110CC09FB7F8947B
:100E10008C91E22FE0958E238C932881E223E88346
:100E20009FBF14C0623061F49FB7F8948C91322F49
:100E3000309583238C93E881E22BE8839FBF06C023
:100E40008FB7F894EC91E22BEC938FBFDF91CF91A9
:100E50000895789484B5826084BD84B5816084BD32
:100E600085B5826085BD85B5816085BDEEE6F0E023
:100E7000808181608083E1E8F0E01082808182607F
:100E80008083808181608083E0E8F0E08081816000
:100E90008083E1E9F0E080818260808380818160ED
:100EA0008083E0E9F0E0808181608083E1ECF0E024
:100EB0008081846080838081826080838081816082
:100EC0008083E3ECF0E0808181608083E0ECF0E0FF
:100ED000808182608083E2ECF0E0808181608083A9
:100EE000EAE7F0E080818460808380818260808393
:100EF00080818160808380818068808308953FB78E
:100F0000F8948091640190916501A0916601B0917F
:100F1000670126B5A89B05C02F3F19F00196A11DBA
:100F2000B11D3FBFBA2FA92F982F8827820F911D7F
:100F3000A11DB11DBC01CD01660F771F881F991F30
:100F4000660F771F881F991F08958F929F92AF9207
:100F5000BF92CF92DF92EF92FF926B017C010E94D1
:100F60007F074B015C011DC021E0C21AD108E108D6
:100F7000F10888EE880E83E0981EA11CB11CC114F4
:100F8000D104E104F10469F00E947F07DC01CB0188
:100F900088199909AA09BB09883E9340A105B105A2
:100FA00018F7C114D104E104F10449F7FF90EF9060
:100FB000DF90CF90BF90AF909F908F900895109248
:100FC000700110926F0110926E01E7EDF0E08081E8
:100FD0008160808380EA8093D80089B5806189BD73
:100FE00089B5826089BD09B400FEFDCF61E070E083
:100FF00080E090E00E94A507E8EDF0E080818F7C22
:1010000080618083E0EEF0E08081807F8083E1EE8C
:10101000F0E080818E7E80838DE08093E2008AB153
:1010200080628AB984B1816084B98BB18F7D8BB9BC
:1010300085B18E7F85B908959F92AF92BF92CF926E
:10104000DF92EF92FF920F931F93CF93DF931F9244
:10105000CDB7DEB7D82E8B01942EA52E80917001CE
:10106000882309F48BC080916E0180FF05C0E0EEFB
:10107000F0E0808182608083E92CFA2CB12C0F2E65
:10108000FAEFCF2EF02DE114F10419F4BB2009F48E
:101090006CC08D2D0E94B30581110BC0CA94CC2069
:1010A00009F46FC061E070E080E090E00E94A50765
:1010B000EACF282F30E0E216F3060CF48E2D2FB77E
:1010C0002983F8942D2D27702093E9002091E800C2
:1010D00025FF48C0E81AF108D5FE08C02FEF280FF9
:1010E000882301F11092F100822FF8CFDD2074F4F3
:1010F0009FEF980F8823B1F098012F5F3F4FF801C1
:1011000004910093F100892F8901F2CF2FEF280F6E
:10111000882341F0F80130813093F100822F0F5F76
:101120001F4FF4CFBB2029F08AE38093E800B12C55
:1011300016C08091E80085FD07C08AE38093E8002F
:10114000E114F10451F00BC0E114F10441F4D6FEB6
:1011500006C08AE38093E80002C0BB24B39489816F
:101160008FBF91CF89818FBF8ECF8BB180628BB9BA
:1011700084E680936D01892D9A2D05C08FEF9FEF36
:1011800002C08FEF9FEF0F90DF91CF911F910F91D2
:10119000FF90EF90DF90CF90BF90AF909F90089519
:1011A000AF92BF92CF92DF92EF92FF920F931F9375
:1011B000CF93DF931F92CDB7DEB77C0169836A01BD
:1011C000590141E050E0BE016F5F7F4FFC01838118
:1011D0000E941C088C01992364F0F7018381A5010A
:1011E000B60180640E941C0899231CF0800F911F97
:1011F00000C00F90DF91CF911F910F91FF90EF9062
:10120000DF90CF90BF90AF900895CF93DF93209160
:101210000B01222371F0EC0183E00E941C081816D8
:10122000190674F081E090E09B838A8380E090E06F
:1012300007C021E030E0FC013383228380E090E0AE
:10124000DF91CF9108950895CF92DF92EF92FF92B0
:101250000F931F93CF93DF938C01DB01C0E0D0E0AD
:101260007A0181E0E81AF108452BA1F0F8018081AC
:101270009181FC01208131816D01FFEFCF1ADF0ADE
:101280006C91C801F9010995892B21F02196A701DC
:10129000D601E6CFCE01DF91CF911F910F91FF9044
:1012A000EF90DF90CF900895CF92DF92EF92FF9270
:1012B0000F931F93CF93DF936C01EB01E12CF12C83
:1012C0008A0101501109452B99F068816D3069F050
:1012D000D601ED91FC910190F081E02DC6010995B8
:1012E000892B31F0BFEFEB1AFB0A2196A801E8CF5A
:1012F000C701DF91CF911F910F91FF90EF90DF9089
:10130000CF900895CF93DF93EB010E944B0228E02A
:1013100030E0AE0162E00E94D008DF91CF910895E5
:10132000CF93DF93DC01683818F0E8E7E60F27C0B9
:101330006623ACF4E62FF0E0E058F10981E090E09C
:1013400002C0880F991FEA95E2F7809514969C9148
:101350001497892314968C931497E0E010C0E62F1D
:10136000F0E0E750FF4FE491EE2329F144F41496A6
:101370008C9114978D7F14968C931497EF7790E04F
:10138000963080F4EE2361F0292F30E0ED01C20F9A
:10139000D31F8E81E81304C0ED01C20FD31F1E823C
:1013A0009F5FEECFCD01BD016C5F7F4F0E94820930
:1013B00081E090E002C080E090E0DF91CF9108955D
:1013C000CF93DF93DC01683818F0E8E7E60F30C010
:1013D0006623A4F4E62FF0E0E058F10981E090E004
:1013E00002C0880F991FEA95E2F714969C91149712
:1013F000892B14968C931497E0E01AC0E62FF0E046
:10140000E750FF4FE491E11109C081E090E01396AD
:101410009C938E93129780E090E04DC0EE2344F4AD
:1014200014968C911497826014968C931497EF778E
:1014300016968C911697E817B1F117968C9117971D
:10144000E81789F118968C911897E81761F11996A9
:101450008C911997E81739F11A968C911A97E81719
:1014600011F11B968C911B97E817E9F080E086300C
:1014700078F4282F30E0ED01C20FD31F9E81911127
:1014800005C0ED01C20FD31FEE8302C08F5FEFCF07
:10149000863049F481E090E013969C938E931297E6
:1014A00080E090E008C0CD01BD016C5F7F4F0E94DD
:1014B000820981E090E0DF91CF910895EF92FF9251
:1014C0001F93CF93DF93EC01162F0E94E0097C015C
:1014D000612FCE010E949009C7019927DF91CF911A
:1014E0001F91FF90EF9008950895FC0113821282DE
:1014F00027E131E03183208380914A0181110FC0BF
:10150000E4E4F1E0118210828AEC90E0938382831C
:101510008FE290E09583848381E080934A010E946A
:101520004B0264E471E00E9491010895019739F43F
:101530006F3F7F4F21F482E591E00E94750A089584
:10154000089580E090E0089584E00E94BF0601972E
:1015500081F461E682E591E00E94E00964E670E0D2
:1015600080E090E00E94A50761E682E591E00E949C
:10157000900968EE73E080E090E00E94A50708956E
:1015800060E084E00E94EA0668EB7BE080E090E0A7
:101590000E94A5070895FF920F931F93CF93DF93A7
:1015A000CDB7DEB764970FB6F894DEBF0FBECDBFE0
:1015B0008C01FC01F380F2E0FF1206C0FC01868181
:1015C00097810E942D055DC0FC01868197810E9454
:1015D00022050E94DF01B8010E9496029C01892B1E
:1015E00039F081E0121613060CF44BC080E049C0BC
:1015F000F1E0FF1681F183E0F81230C0F80182813A
:10160000882379F1823039F440E86DE082E292E09B
:101610000E946F0336C0813039F440E86BE086E108
:1016200092E00E946F032DC0833041F50E94DF01DC
:101630008E010F5F1F4FB8010E947702F8010190E1
:101640000020E9F73197BF01601B710B40E0C80132
:101650000E946F0316C064E072E005C060E070E0B5
:1016600002C060E072E06115710551F0FB01449128
:1016700050E080E80E94A10381E003C080E001C047
:1016800080E064960FB6F894DEBF0FBECDBFDF9149
:10169000CF911F910F91FF9008950E94280D6FEF39
:1016A0007FEF81E090E00E94960A08951F920F92CA
:1016B0000FB60F9211242F933F934F935F936F9325
:1016C0007F938F939F93AF93BF93CF93EF93FF93AA
:1016D000E1EEF0E0C0818081837F8083C3FF0AC098
:1016E00042E360E080E00E94A9051092700188E06A
:1016F0008093F000C2FF2DC083E00E94010380911F
:101700006D01882349F080916D01815080936D01B6
:10171000811104C081E003C080E001C080E0882323
:1017200019F08BB18F7D8BB980916C01882349F0C2
:1017300080916C01815080936C01811104C081E023
:1017400003C080E001C080E0882319F085B18E7F5E
:1017500085B9C4FF12C0E2EEF0E080818E7E816028
:101760008083E1EEF0E080818F7E808380916E0146
:101770008E7E806180936E0113C0C0FF11C0E2EEC7
:10178000F0E080818E7E80618083E1EEF0E08081F8
:101790008E7E808380916E018E7E816080936E014B
:1017A000FF91EF91CF91BF91AF919F918F917F91D9
:1017B0006F915F914F913F912F910F900FBE0F90BE
:1017C0001F9018951F920F920FB60F9211242F930E
:1017D0003F934F935F936F937F938F939F93AF93B9
:1017E000BF93EF93FF93CF93DF93CDB7DEB72897E7
:1017F000DEBFCDBF1092E9008091E80083FF9DC05D
:1018000088E0FE0131969FEF980F882331F0809198
:10181000F1008083892F3196F6CF85B1816085B93B
:1018200084E680936C0182EF8093E8002981222373
:101830002CF48091E80080FFFCCF03C08EEF8093F2
:10184000E800822F807609F059C03A814B818C8163
:1018500090E0982F8827842B311110C0203841F454
:1018600080916F01E1EFF0E08083108281E05CC045
:10187000E1EFF0E01082108281E056C0313061F477
:10188000211145C0019709F044C080916F018D7FFF
:1018900080936F0181E048C0333059F421113BC07F
:1018A0000197D9F580916F01826080936F0181E08B
:1018B0003BC0353049F48091E80080FFFCCF4068A0
:1018C0004093E30081E030C0363029F4CE01019628
:1018D0000E94CB0A29C0373011F1383021F481E061
:1018E0008093F10021C03930E1F42370E1F40E94CB
:1018F00088058B818093700181E016C08F81988567
:101900000E942205CE0101960E9476050DC081E05D
:101910000BC081E009C081E007C081E005C080E024
:1019200003C081E001C080E0882321F08EEF809326
:10193000E80003C081E28093EB0028960FB6F8948C
:10194000DEBF0FBECDBFDF91CF91FF91EF91BF9171
:10195000AF919F918F917F916F915F914F913F9147
:101960002F910F900FBE0F901F9018951F920F92FE
:101970000FB60F9211240F931F932F933F934F9302
:101980005F936F937F938F939F93AF93BF930091D8
:101990006001109161012091620130916301909189
:1019A0005F01B901A8014F5F5F4F6F4F7F4F83E029
:1019B000890F8D3740F086E8890FB901A8014E5F85
:1019C0005F4F6F4F7F4F80935F0140936001509353
:1019D0006101609362017093630180916401909151
:1019E0006501A0916601B09167010196A11DB11D2D
:1019F0008093640190936501A0936601B0936701A1
:101A0000BF91AF919F918F917F916F915F914F9116
:101A10003F912F911F910F910F900FBE0F901F902C
:101A200018950E9429078EE591E00E94DF070E9429
:101A3000C00A0E94A40A80E090E0892BD1F30E94A2
:101A40000000F7CFEE0FFF1F0590F491E02D0994F1
:0E1A500081E090E0F8940C942D0DF894FFCFF7
:101A5E00FFFFFFFF00E100000000000000C18081D9
:101A6E00000000000000005E0A5409A10AA00A004E
:101A7E000000004D0B2409A10AA00A00000000641A
:101A8E00011904D003B301000000004D0B4D0B4DA6
:041A9E000BD0010068
:00000001FF
