:100000000C94E3000C940B010C940B010C940B0169
:100010000C940B010C940B010C940B010C940B0130
:100020000C940B010C940B010C9457090C94E309EC
:100030000C940B010C940B010C940B010C940B0110
:100040000C940B010C940B010C940B010C940B0100
:100050000C940B010C940B010C940B010C94EB0809
:100060000C940B010C940B010C940B010C940B01E0
:100070000C940B010C940B010C940B010C940B01D0
:100080000C940B010C940B010C940B010C940B01C0
:100090000C940B010C940B010C940B010C940B01B0
:1000A0000C940B010C940B010C940B01C701CB01B8
:1000B000B501BB01C101F201F201F201CF01D5018D
:1000C000DB01E101E701F201ED01080B0002020290
:1000D00001000904000001020200000524001001D3
:1000E0000524010101042402060524060001070578
:1000F000810310004009040100020A000000070506
:1001000002024000000705830240000004030904C6
:1001100012010002EF020140412337800001010279
:10012000030141726475696E6F204C4C430041724B
:100130006475696E6F204D6963726F000000000086
:10014000250028002B002E003100000000002400B4
:1001500027002A002D0030000000000023002600A8
:1001600029002C002F0004040404040304050202E7
:100170000202040302020202060606060606040440
:1001800002020204040408020110408040102040D2
:10019000804080080204018040201002011080107D
:1001A000204040200000000200090F00000304016D
:1001B000000C000000000000000000000000000033
:1001C00000000000B70A11241FBECFEFDAE0DEBF47
:1001D000CDBF11E0A0E0B1E0EAEDF5E102C005908D
:1001E0000D92A634B107D9F721E0A6E4B1E001C031
:1001F0001D92A63BB207E1F710E0C3EED0E004C0C9
:100200002197FE010E94E00AC23ED107C9F70E9471
:1002100046090C94EB0A0C9400000895FC0182E05E
:10022000808384E081831382128208958091AE01DD
:10023000811107C08AEA91E00E940E0181E080935B
:10024000AE018AEA91E008950F931F93CF93DF9355
:100250008B01FC01C281D381209771F0E881F98183
:100260000190F081E02DB801CE010995811105C002
:100270000884D985C02DF0CF80E0DF91CF911F9108
:100280000F9108950F931F93CF93DF938B01FC0180
:10029000C281D381209771F0E881F9810680F781CE
:1002A000E02DB801CE010995080F111D0884D985EC
:1002B000C02DF0CFF8011082DF91CF911F910F91E7
:1002C00008950F931F93CF93DF938B01FC01C2819D
:1002D000D381209771F0E881F9810480F581E02DC8
:1002E000B801CE010995009731F40884D985C02D55
:1002F000F0CF80E090E0DF91CF911F910F910895B2
:10030000EF92FF920F931F93CF93DF937B01FC013A
:10031000C281D38100E010E0209781F0E881F9816B
:100320000280F381E02DB701CE01099599234CF0AD
:10033000080F191F0884D985C02DEECF802F912F6B
:1003400002C08FEF9FEFDF91CF911F910F91FF9030
:10035000EF90089590E0FC013197EF30F10508F03F
:1003600041C0EA5AFF4F0C94E00AE0E8F0E08081D7
:100370008F7780830895E0E8F0E080818F7D80832F
:100380000895E0E8F0E08081877F8083089584B558
:100390008F7784BD089584B58F7D84BD0895E0E98D
:1003A000F0E080818F7780830895E0E9F0E080813C
:1003B0008F7D80830895E0E9F0E08081877F8083EE
:1003C0000895E0ECF0E080818F7780830895E0EC81
:1003D000F0E080818F7D80830895E2ECF0E0808101
:1003E000877F80830895CF93DF93282F30E0F90132
:1003F000EC55FE4F8491F901EB57FE4FD491F90172
:10040000EA59FE4FC491CC2389F081110E94AA01C0
:10041000EC2FF0E0EE0FFF1FE85AFE4FA591B491CC
:10042000EC91ED2331F081E090E005C080E090E0B8
:1004300002C080E090E0DF91CF910895CF93DF93E9
:1004400090E0FC01EB57FE4F2491FC01EA59FE4F6E
:100450008491882379F190E0880F991FFC01E65B75
:10046000FE4FA591B491FC01E45CFE4FC591D4917F
:1004700061110CC09FB7F8948C91E22FE0958E2308
:100480008C932881E223E8839FBF14C0623061F41B
:100490009FB7F8948C91322F309583238C93E88109
:1004A000E22BE8839FBF06C08FB7F894EC91E22B54
:1004B000EC938FBFDF91CF910895789484B58260DB
:1004C00084BD84B5816084BD85B5826085BD85B5F8
:1004D000816085BDEEE6F0E0808181608083E1E8A7
:1004E000F0E01082808182608083808181608083DF
:1004F000E0E8F0E0808181608083E1E9F0E08081E4
:1005000082608083808181608083E0E9F0E0808187
:1005100081608083E1ECF0E0808184608083808171
:1005200082608083808181608083E3ECF0E0808161
:1005300081608083E0ECF0E0808182608083E2EC87
:10054000F0E0808181608083EAE7F0E08081846070
:1005500080838081826080838081816080838081CC
:100560008068808308953FB7F8948091A6019091A8
:10057000A701A091A801B091A90126B5A89B05C02B
:100580002F3F19F00196A11DB11D3FBFBA2FA92F12
:10059000982F8827820F911DA11DB11DBC01CD018F
:1005A000660F771F881F991F660F771F881F991F77
:1005B00008958F929F92AF92BF92CF92DF92EF9267
:1005C000FF926B017C010E94B3024B015C011DC0D4
:1005D00021E0C21AD108E108F10888EE880E83E014
:1005E000981EA11CB11CC114D104E104F10469F0EE
:1005F0000E94B302DC01CB0188199909AA09BB0941
:10060000883E9340A105B10518F7C114D104E10457
:10061000F10449F7FF90EF90DF90CF90BF90AF903B
:100620009F908F900895089510929F0110929E01BF
:1006300010929D01E7EDF0E080818160808380EA87
:100640008093D80089B5806189BD89B5826089BDF4
:1006500009B400FEFDCF61E070E080E090E00E9410
:10066000D902E8EDF0E080818F7C80618083E0EE4C
:10067000F0E08081807F8083E1EEF0E080818E7EFB
:1006800080838DE08093E2008AB180628AB984B170
:10069000816084B98BB18F7D8BB985B18E7F85B92F
:1006A00008958093E9008091F200882319F08AE38D
:1006B0008093E8000895CF93DF93EC01AB014115DF
:1006C000510539F14134510514F4DA0102C0A0E4B6
:1006D000B0E09091E80092FFFCCF9A2FFB01E41B61
:1006E000F50BEC0FFD1F2FEF290F992331F090919F
:1006F000F1009083922F3196F6CF95B1916095B924
:1007000084E680939B018BEF8093E8004A1B5B0B90
:10071000D6CFCB01DF91CF910895409199015091AF
:100720009A01209197013091980142175307B4F430
:100730009091E8009570E1F39091E80092FD19C066
:100740008093F1008091990190919A0101968F73A5
:100750009927892B19F48EEF8093E80080919901F5
:1007600090919A01019690939A018093990181E06A
:10077000089580E00895EF92FF920F931F93CF9317
:10078000DF938C01E62EF42E862F90E00196880FE1
:100790000E948D0383E00E948D03D0E0DE15A8F453
:1007A000FF202CF4F801ED0FF11D849104C0F80135
:1007B000ED0FF11D80810E948D03C82F80E00E9403
:1007C0008D038C2319F0DF5FE9CF81E0DF91CF91BA
:1007D0001F910F91FF90EF900895DF92EF92FF929B
:1007E0000F931F93CF93DF93EB01D42EE52EF82EBA
:1007F000242F352F890101501109232B99F0FF2057
:100800003CF49E012F5F3F4FFE018491E90102C03D
:10081000888121960E948D0398018111EBCF8FEF83
:100820009FEF02C08D2D9E2DDF91CF911F910F91D3
:10083000FF90EF90DF9008951092E90010929A01D6
:10084000109299019093980180939701089581E007
:100850008730C0F4282F30E0F901E45CFE4F90812E
:10086000992381F08093E90091E09093EB00F901E6
:10087000E45CFE4F90819093EC0096E39093ED0042
:100880008F5FE6CFEAEEF0E08EE780831082089576
:100890008093E90081E08093EB006093EC0040934B
:1008A000ED000895CF93DF931F92CDB7DEB79FB7CA
:1008B0009983F89487708093E9009091E800892FDC
:1008C000807295FF04C09091F20080E4891B9981A9
:1008D0009FBF0F90DF91CF9108959F92AF92BF92EB
:1008E000CF92DF92EF92FF920F931F93CF93DF93FC
:1008F0001F92CDB7DEB7D82E8B01942EA52E8091F6
:100900009F01882309F48BC080919D0180FF05C061
:10091000E0EEF0E0808182608083E92CFA2CB12C3B
:100920000F2EFAEFCF2EF02DE114F10419F4BB20B5
:1009300009F46CC08D2D0E94520481110BC0CA9421
:10094000CC2009F46FC061E070E080E090E00E948C
:10095000D902EACF282F30E0E216F3060CF48E2DF0
:100960002FB72983F8942D2D27702093E90020912B
:10097000E80025FF48C0E81AF108D5FE08C02FEFAF
:10098000280F882301F11092F100822FF8CFDD208B
:1009900074F49FEF980F8823B1F098012F5F3F4FB9
:1009A000F80104910093F100892F8901F2CF2FEF14
:1009B000280F882341F0F80130813093F100822F15
:1009C0000F5F1F4FF4CFBB2029F08AE38093E8002C
:1009D000B12C16C08091E80085FD07C08AE38093A2
:1009E000E800E114F10451F00BC0E114F10441F40A
:1009F000D6FE06C08AE38093E80002C0BB24B3940D
:100A000089818FBF91CF89818FBF8ECF8BB180625B
:100A10008BB984E680939C01892D9A2D05C08FEFB8
:100A20009FEF02C08FEF9FEF0F90DF91CF911F914B
:100A30000F91FF90EF90DF90CF90BF90AF909F907D
:100A40000895CF93DF931F92CDB7DEB7FB01BA01B4
:100A500090919F01992321F0552324F451E003C084
:100A600051E001C050E0511130C09FB79983F89414
:100A700087708093E9002091F20030E062177307DD
:100A80000CF49B01822F9FEF980F882361F085B1B2
:100A9000816085B984E680939B018091F100808319
:100AA000892F3196F0CF2115310529F08091F20080
:100AB000811101C051E0552319F08BE68093E800C5
:100AC00089818FBF822F932F02C08FEF9FEF0F90EE
:100AD000DF91CF910895CF93DF931F92CDB7DEB70B
:100AE00041E050E0BE016F5F7F4F0E9421050197FA
:100AF00019F4898190E002C08FEF9FEF0F90DF9192
:100B0000CF910895CF93DF931F92CDB7DEB79FB7F4
:100B10009983F89487708093E9008091F20099811D
:100B20009FBF0F90DF91CF910895DC01ED91FC9173
:100B30000190F081E02D09950895CF92DF92EF9218
:100B4000FF920F931F93CF93DF938C01DB01C0E0E3
:100B5000D0E07A0181E0E81AF108452BA1F0F80114
:100B600080819181FC01208131816D01FFEFCF1ADD
:100B7000DF0A6C91C801F9010995892B21F02196B2
:100B8000A701D601E6CFCE01DF91CF911F910F9142
:100B9000FF90EF90DF90CF9008950197B9F46F3FE9
:100BA0007F4FA1F4E7E4F1E01382128288EE93E034
:100BB000A0E0B0E084839583A683B78380E191E0D1
:100BC000918380838FEF9FEF958784870895CF93DC
:100BD000DF9320910B01222371F0EC0183E00E944E
:100BE0006D041816190674F081E090E09B838A83E7
:100BF00080E090E007C021E030E0FC0133832283F5
:100C000080E090E0DF91CF910895CF93DF931F9222
:100C1000CDB7DEB76983DC01ED91FC910280F381F1
:100C2000E02D41E050E0BE016F5F7F4F09950F90CE
:100C3000DF91CF91089583E00E945103089583E0EE
:100C40000E94520490E00895FC01848595859923C3
:100C50002CF02FEF3FEF35872487089582E00E9424
:100C60006B050895CF93DF93EC018C859D859923C7
:100C70002CF482E00E946B059D878C878C859D8576
:100C8000DF91CF910895FC0184859585992334F0F7
:100C900082E00E94820590E00196089582E00E9421
:100CA000820590E008952FEF3FEFFC013587248700
:100CB0000895FC0190819E5F908342E450E06AECCD
:100CC00070E080E80E94ED030895CF93DF931F92B8
:100CD000CDB7DEB71982CE0101960E9459060E9457
:100CE0001601BE016F5F7F4F0E94800189810F90C6
:100CF000DF91CF910895EF92FF920F931F93CF93BF
:100D0000DF93CDB7DEB729970FB6F894DEBF0FBEDD
:100D1000CDBF7C0180E090E00E941C040E9465062B
:100D200099E08E010F5F1F4FF801292F11922A952C
:100D3000E9F7998392E09A8391E09E8390EA9887FD
:100D40009AEF99872091990130919A01275F3F4F3F
:100D50003C832B838D83C7010E941C0449E050E033
:100D6000B80180E00E94ED030E94650681E02996AB
:100D70000FB6F894DEBF0FBECDBFDF91CF911F91AC
:100D80000F91FF90EF900895EEEFFFE725913491DA
:100D900081E02B3F3C4D09F080E008951F93CF93F5
:100DA000DF93EC0119818881813A59F4113249F4B9
:100DB00047E050E064E071E080E00E94ED0381E0F4
:100DC00088C0813209F080C0133281F48B8190E0B9
:100DD000982F88272A81822BA0E0B0E08093000121
:100DE00090930101A0930201B0930301103231F4FA
:100DF00067E070E084E091E00E945B03123209F04A
:100E000065C08A8180930B010E94C406811103C0D2
:100E1000E0E0F8E002C0EEEFFAE08091040190918A
:100E20000501A0910601B0910701803B9440A10506
:100E3000B10531F480910B0180FF04C080E003C054
:100E400080E001C081E0882309F1EE3F9AE0F907D4
:100E500051F020813181273797E7390721F030930E
:100E6000FF0A2093FE0A27E737E73183208390911A
:100E70006000909346012BE098E10FB6F894A89596
:100E8000909360000FBE2093600023C08081918109
:100E900087379747E9F4A895A0E6B0E08C91886180
:100EA0008C93809146018C93EE3F8AE0F80741F0E5
:100EB0008091FE0A9091FF0A9183808381E009C0AE
:100EC0001182108281E005C080E003C081E001C092
:100ED00081E0DF91CF911F910895CF93DF93EC01D3
:100EE0008C81811104C0CE010E94CE0605C00E94F3
:100EF0001601BE010E942401DF91CF91089508954B
:100F000080E090E0089560E084E00E941E0240E8E6
:100F100055E260E070E087E491E00E945306089596
:100F20000E94E60AFF920F931F93CF93DF93CDB7F2
:100F3000DEB764970FB6F894DEBF0FBECDBF8C014D
:100F4000FC01F380F2E0FF1206C0FC01868197816C
:100F50000E947B065DC0FC01868197810E941C0473
:100F60000E941601B8010E9461019C01892B39F091
:100F700081E0121613060CF44BC080E049C0F1E08A
:100F8000FF1681F183E0F81230C0F80182818823D6
:100F900079F1823039F440E86DE08EE291E00E9410
:100FA000BB0336C0813039F440E86BE082E291E067
:100FB0000E94BB032DC0833041F50E9416018E01B3
:100FC0000F5F1F4FB8010E944201F80101900020FD
:100FD000E9F73197BF01601B710B40E0C8010E9427
:100FE000BB0316C060E171E005C060E070E002C0C4
:100FF0006CE071E06115710551F0FB01449150E026
:1010000080E80E94ED0381E003C080E001C080E041
:1010100064960FB6F894DEBF0FBECDBFDF91CF91BF
:101020001F910F91FF9008958F929F92AF92BF9260
:10103000DF92EF92FF920F931F93CF93DF93CDB781
:10104000DEB7A1970FB6F894DEBF0FBECDBF7C010F
:10105000CB01BA01D22E19A221E02D1520F00F2EBE
:10106000FAE0DF2EF02D8E010F5D1F4F8D2C912C9D
:10107000A12CB12CA50194010E94BE0AE62F622F7B
:10108000732F842F952F01501109EA3014F4E05D7D
:1010900001C0E95CD801EC936115710581059105EA
:1010A00029F70115110591F0F80101900020E9F7E9
:1010B0003197AF01401B510BD701ED91FC9102809C
:1010C000F381E02DB801C701099502C080E090E0EE
:1010D000A1960FB6F894DEBF0FBECDBFDF91CF91C2
:1010E0001F910F91FF90EF90DF90BF90AF909F9076
:1010F0008F900895CF92DF92EF92FF920F931F93FC
:10110000CF93DF93EC016A017B012115310541F496
:10111000E881F9810190F081E02D642F09951DC0CF
:101120002A303105C1F4772394F46DE20E949505CD
:101130008C0144275527BA014C195D096E097F09B6
:101140002AE0CE010E941408800F911F06C02AE0F9
:101150000E94140802C00E941408DF91CF911F91D1
:101160000F91FF90EF90DF90CF9008959A01AB011F
:10117000770F660B770B0E947A080895DC01ED91DA
:10118000FC910280F381E02D42E050E063E471E0E5
:10119000099508950F931F93CF93DF93EC010E945D
:1011A000B6088C01CE010E94BE08800F911FDF910E
:1011B000CF911F910F91089584E00E94F30161E0A7
:1011C000892B09F460E070E04AE050E087E491E0A8
:1011D0000E94CA0808951F920F920FB60F92112411
:1011E0000F931F932F933F934F935F936F937F932F
:1011F0008F939F93AF93BF930091A2011091A3018E
:101200002091A4013091A5019091A101B901A801FB
:101210004F5F5F4F6F4F7F4F83E0890F8D3740F0F7
:1012200086E8890FB901A8014E5F5F4F6F4F7F4F6E
:101230008093A1014093A2015093A3016093A40164
:101240007093A5018091A6019091A701A091A8019A
:10125000B091A9010196A11DB11D8093A6019093A3
:10126000A701A093A801B093A901BF91AF919F914D
:101270008F917F916F915F914F913F912F911F912E
:101280000F910F900FBE0F901F9018950E945D0256
:1012900080EA91E00E9414030E9483070E94DC0808
:1012A00080E090E0892BD1F30E940000F7CF1F92DD
:1012B0000F920FB60F9211242F933F934F935F938A
:1012C0006F937F938F939F93AF93BF93CF93EF933E
:1012D000FF93E1EEF0E0C0818081837F8083C3FFD4
:1012E0000AC042E360E080E00E94480410929F013F
:1012F00088E08093F000C2FF2DC083E00E9451037C
:1013000080919C01882349F080919C0181508093B9
:101310009C01811104C081E003C080E001C080E035
:10132000882319F08BB18F7D8BB980919B01882325
:1013300049F080919B01815080939B01811104C0F1
:1013400081E003C080E001C080E0882319F085B10E
:101350008E7F85B9C4FF12C0E2EEF0E080818E7E00
:1013600081608083E1EEF0E080818F7E80838091D8
:101370009D018E7E806180939D0113C0C0FF11C0CE
:10138000E2EEF0E080818E7E80618083E1EEF0E02D
:1013900080818E7E808380919D018E7E816080938E
:1013A0009D01FF91EF91CF91BF91AF919F918F914F
:1013B0007F916F915F914F913F912F910F900FBE51
:1013C0000F901F9018951F920F920FB60F92112435
:1013D0002F933F934F935F936F937F938F939F933D
:1013E000AF93BF93EF93FF93CF93DF93CDB7DEB768
:1013F0002897DEBFCDBF1092E9008091E80083FFFF
:101400009DC088E0FE0131969FEF980F882331F050
:101410008091F1008083892F3196F6CF85B181606C
:1014200085B984E680939B0182EF8093E80029814F
:1014300022232CF48091E80080FFFCCF03C08EEFC4
:101440008093E800822F807609F059C03A814B8161
:101450008C8190E0982F8827842B311110C0203880
:1014600041F480919E01E1EFF0E08083108281E001
:101470005CC0E1EFF0E01082108281E056C03130B4
:1014800061F4211145C0019709F044C080919E018B
:101490008D7F80939E0181E048C0333059F4211143
:1014A0003BC00197D9F580919E01826080939E0197
:1014B00081E03BC0353049F48091E80080FFFCCFEB
:1014C00040684093E30081E030C0363029F4CE011B
:1014D00001960E94920729C0373011F1383021F46B
:1014E00081E08093F10021C03930E1F42370E1F410
:1014F0000E9427048B8180939F0181E016C08F8119
:1015000098850E941C04CE0101960E946D070DC0B3
:1015100081E00BC081E009C081E007C081E005C027
:1015200080E003C081E001C080E0882321F08EEFDD
:101530008093E80003C081E28093EB0028960FB609
:10154000F894DEBF0FBECDBFDF91CF91FF91EF9139
:10155000BF91AF919F918F917F916F915F914F91CB
:101560003F912F910F900FBE0F901F9018956FEF26
:101570007FEF81E090E00E94CD050895A1E21A2E50
:10158000AA1BBB1BFD010DC0AA1FBB1FEE1FFF1F27
:10159000A217B307E407F50720F0A21BB30BE40B77
:1015A000F50B661F771F881F991F1A9469F76095BE
:1015B0007095809590959B01AC01BD01CF01089578
:1015C000EE0FFF1F0590F491E02D099481E090E06B
:0A15D000F8940C94EB0AF894FFCF96
:1015DA00FFFFFFFF00E10000000000000000000024
:1015EA000506E7051F061B06430624063206000009
:1015FA00000090079D0580077F07900790079007D6
:10160A000000000090079D0580077F0700C18081C8
:06161A000000000D0A00B3
:00000001FF
